{
  "address": "0xF122e47246a8A4E84f6AA11310163C2B7bc39699",
  "abi": [
    {
      "inputs": [
        {
          "internalType": "contract IPoolAddressesProvider",
          "name": "_addressProviderV3",
          "type": "address"
        }
      ],
      "stateMutability": "nonpayable",
      "type": "constructor"
    },
    {
      "inputs": [],
      "name": "notAavePoolV3",
      "type": "error"
    },
    {
      "inputs": [],
      "name": "notOwner",
      "type": "error"
    },
    {
      "inputs": [],
      "name": "ADDRESSES_PROVIDER",
      "outputs": [
        {
          "internalType": "contract IPoolAddressesProvider",
          "name": "",
          "type": "address"
        }
      ],
      "stateMutability": "view",
      "type": "function"
    },
    {
      "inputs": [],
      "name": "POOL",
      "outputs": [
        {
          "internalType": "contract IPool",
          "name": "",
          "type": "address"
        }
      ],
      "stateMutability": "view",
      "type": "function"
    },
    {
      "inputs": [
        {
          "internalType": "address",
          "name": "_asset",
          "type": "address"
        },
        {
          "internalType": "uint256",
          "name": "_amount",
          "type": "uint256"
        },
        {
          "internalType": "bytes",
          "name": "_params",
          "type": "bytes"
        }
      ],
      "name": "aaveFlashLoanV3",
      "outputs": [],
      "stateMutability": "nonpayable",
      "type": "function"
    },
    {
      "inputs": [
        {
          "internalType": "address",
          "name": "_asset",
          "type": "address"
        },
        {
          "internalType": "uint256",
          "name": "_amount",
          "type": "uint256"
        },
        {
          "internalType": "uint256",
          "name": "_premium",
          "type": "uint256"
        },
        {
          "internalType": "address",
          "name": "",
          "type": "address"
        },
        {
          "internalType": "bytes",
          "name": "_params",
          "type": "bytes"
        }
      ],
      "name": "executeOperation",
      "outputs": [
        {
          "internalType": "bool",
          "name": "",
          "type": "bool"
        }
      ],
      "stateMutability": "nonpayable",
      "type": "function"
    },
    {
      "inputs": [
        {
          "internalType": "address",
          "name": "_asset",
          "type": "address"
        },
        {
          "internalType": "uint256",
          "name": "_amount",
          "type": "uint256"
        }
      ],
      "name": "withdrawERC20",
      "outputs": [],
      "stateMutability": "nonpayable",
      "type": "function"
    },
    {
      "inputs": [],
      "name": "withdrawETH",
      "outputs": [
        {
          "internalType": "bool",
          "name": "",
          "type": "bool"
        }
      ],
      "stateMutability": "nonpayable",
      "type": "function"
    }
  ],
  "transactionHash": "0x3b1ab583ddc99b9ded55819f28b0ef95eccd35cb4c81ec4675e682581790f414",
  "args": [
    "0xa97684ead0e402dC232d5A977953DF7ECBaB3CDb"
  ],
  "numDeployments": 1,
  "solcInputHash": "8e455782afa36fa64c57c9e95aef7854",
  "bytecode": "0x60e060405234801561001057600080fd5b50604051610e81380380610e8183398101604081905261002f916100db565b80806001600160a01b03166080816001600160a01b031681525050806001600160a01b031663026b1d5f6040518163ffffffff1660e01b8152600401602060405180830381865afa158015610088573d6000803e3d6000fd5b505050506040513d601f19601f820116820180604052508101906100ac91906100db565b6001600160a01b031660a05250503360c0526100ff565b6001600160a01b03811681146100d857600080fd5b50565b6000602082840312156100ed57600080fd5b81516100f8816100c3565b9392505050565b60805160a05160c051610d39610148600039600081816102be01526103cb01526000818160f00152818161015c015281816101db01526104af01526000607c0152610d396000f3fe608060405234801561001057600080fd5b50600436106100725760003560e01c8063a1db978211610050578063a1db978214610112578063e086e5ec14610127578063e3bf871c1461012f57600080fd5b80630542975c146100775780631b11d0ff146100c85780637535d246146100eb575b600080fd5b61009e7f000000000000000000000000000000000000000000000000000000000000000081565b60405173ffffffffffffffffffffffffffffffffffffffff90911681526020015b60405180910390f35b6100db6100d636600461098a565b610142565b60405190151581526020016100bf565b61009e7f000000000000000000000000000000000000000000000000000000000000000081565b610125610120366004610a06565b6102a6565b005b6100db6103b1565b61012561013d366004610a32565b610472565b60003373ffffffffffffffffffffffffffffffffffffffff7f000000000000000000000000000000000000000000000000000000000000000016146101b3576040517f2570dd6300000000000000000000000000000000000000000000000000000000815260040160405180910390fd5b6101bd8383610527565b73ffffffffffffffffffffffffffffffffffffffff871663095ea7b37f0000000000000000000000000000000000000000000000000000000000000000610204888a610abd565b6040517fffffffff0000000000000000000000000000000000000000000000000000000060e085901b16815273ffffffffffffffffffffffffffffffffffffffff909216600483015260248201526044016020604051808303816000875af1158015610274573d6000803e3d6000fd5b505050506040513d601f19601f820116820180604052508101906102989190610ae3565b506001979650505050505050565b3373ffffffffffffffffffffffffffffffffffffffff7f00000000000000000000000000000000000000000000000000000000000000001614610315576040517f251c9d6300000000000000000000000000000000000000000000000000000000815260040160405180910390fd5b6040517fa9059cbb0000000000000000000000000000000000000000000000000000000081523360048201526024810182905273ffffffffffffffffffffffffffffffffffffffff83169063a9059cbb906044016020604051808303816000875af1158015610388573d6000803e3d6000fd5b505050506040513d601f19601f820116820180604052508101906103ac9190610ae3565b505050565b60003373ffffffffffffffffffffffffffffffffffffffff7f00000000000000000000000000000000000000000000000000000000000000001614610422576040517f251c9d6300000000000000000000000000000000000000000000000000000000815260040160405180910390fd5b604051600090339047908381818185875af1925050503d8060008114610464576040519150601f19603f3d011682016040523d82523d6000602084013e610469565b606091505b50909250505090565b6040517f42b0b77c00000000000000000000000000000000000000000000000000000000815273ffffffffffffffffffffffffffffffffffffffff7f000000000000000000000000000000000000000000000000000000000000000016906342b0b77c906104ef9030908890889088908890600090600401610b07565b600060405180830381600087803b15801561050957600080fd5b505af115801561051d573d6000803e3d6000fd5b5050505050505050565b60006105366020828486610b91565b8101906105439190610bbb565b905060005b818110156105c4576000848461055f846080610bd4565b61056a906020610abd565b90610576856001610abd565b610581906080610bd4565b61058c906020610abd565b9261059993929190610b91565b8101906105a69190610c11565b90506105b1816105ca565b50806105bc81610cad565b915050610548565b50505050565b60008160600151905060008173ffffffffffffffffffffffffffffffffffffffff16630dfe16816040518163ffffffff1660e01b8152600401602060405180830381865afa158015610620573d6000803e3d6000fd5b505050506040513d601f19601f820116820180604052508101906106449190610ce6565b905060008273ffffffffffffffffffffffffffffffffffffffff1663d21220a76040518163ffffffff1660e01b8152600401602060405180830381865afa158015610693573d6000803e3d6000fd5b505050506040513d601f19601f820116820180604052508101906106b79190610ce6565b905083604001511561080a5783516040517fa9059cbb00000000000000000000000000000000000000000000000000000000815273ffffffffffffffffffffffffffffffffffffffff858116600483015260248201929092529083169063a9059cbb906044016020604051808303816000875af115801561073c573d6000803e3d6000fd5b505050506040513d601f19601f820116820180604052508101906107609190610ae3565b5060208401516040517f022c0d9f000000000000000000000000000000000000000000000000000000008152600060048201819052602482019290925230604482015260806064820152608481019190915273ffffffffffffffffffffffffffffffffffffffff84169063022c0d9f9060a401600060405180830381600087803b1580156107ed57600080fd5b505af1158015610801573d6000803e3d6000fd5b505050506105c4565b83516040517fa9059cbb00000000000000000000000000000000000000000000000000000000815273ffffffffffffffffffffffffffffffffffffffff858116600483015260248201929092529082169063a9059cbb906044016020604051808303816000875af1158015610883573d6000803e3d6000fd5b505050506040513d601f19601f820116820180604052508101906108a79190610ae3565b5060208401516040517f022c0d9f000000000000000000000000000000000000000000000000000000008152600481019190915260006024820181905230604483015260806064830152608482015273ffffffffffffffffffffffffffffffffffffffff84169063022c0d9f9060a4016104ef565b73ffffffffffffffffffffffffffffffffffffffff8116811461093e57600080fd5b50565b60008083601f84011261095357600080fd5b50813567ffffffffffffffff81111561096b57600080fd5b60208301915083602082850101111561098357600080fd5b9250929050565b60008060008060008060a087890312156109a357600080fd5b86356109ae8161091c565b9550602087013594506040870135935060608701356109cc8161091c565b9250608087013567ffffffffffffffff8111156109e857600080fd5b6109f489828a01610941565b979a9699509497509295939492505050565b60008060408385031215610a1957600080fd5b8235610a248161091c565b946020939093013593505050565b60008060008060608587031215610a4857600080fd5b8435610a538161091c565b935060208501359250604085013567ffffffffffffffff811115610a7657600080fd5b610a8287828801610941565b95989497509550505050565b7f4e487b7100000000000000000000000000000000000000000000000000000000600052601160045260246000fd5b60008219821115610ad057610ad0610a8e565b500190565b801515811461093e57600080fd5b600060208284031215610af557600080fd5b8151610b0081610ad5565b9392505050565b600073ffffffffffffffffffffffffffffffffffffffff808916835280881660208401525085604083015260a060608301528360a0830152838560c0840137600060c0858401015260c07fffffffffffffffffffffffffffffffffffffffffffffffffffffffffffffffe0601f860116830101905061ffff83166080830152979650505050505050565b60008085851115610ba157600080fd5b83861115610bae57600080fd5b5050820193919092039150565b600060208284031215610bcd57600080fd5b5035919050565b6000817fffffffffffffffffffffffffffffffffffffffffffffffffffffffffffffffff0483118215151615610c0c57610c0c610a8e565b500290565b600060808284031215610c2357600080fd5b6040516080810181811067ffffffffffffffff82111715610c6d577f4e487b7100000000000000000000000000000000000000000000000000000000600052604160045260246000fd5b806040525082358152602083013560208201526040830135610c8e81610ad5565b60408201526060830135610ca18161091c565b60608201529392505050565b60007fffffffffffffffffffffffffffffffffffffffffffffffffffffffffffffffff821415610cdf57610cdf610a8e565b5060010190565b600060208284031215610cf857600080fd5b8151610b008161091c56fea2646970667358221220c90bfbda33af5ce81b079768dde0a3365c73385b3c8de7c994f80cd7e4e0fab064736f6c634300080a0033",
  "devdoc": {
    "kind": "dev",
    "methods": {
      "aaveFlashLoanV3(address,uint256,bytes)": {
        "details": "Initialaze the flash loan from aave pool",
        "params": {
          "_amount": "requeste amount to borrow",
          "_asset": "requested token to borrow",
          "_params": "extra parameters to pass to unisawp for example"
        }
      },
      "constructor": {
        "details": "Initialaze the contract",
        "params": {
          "_addressProviderV3": "Aave V3 address provider"
        }
      }
    },
    "version": 1
  },
  "userdoc": {
    "kind": "user",
    "methods": {
      "aaveFlashLoanV3(address,uint256,bytes)": {
        "notice": "Aave pool will call the execute operation function"
      },
      "executeOperation(address,uint256,uint256,address,bytes)": {
        "notice": "This function is called by AAve pool V3"
      }
    },
    "version": 1
  },
  "storageLayout": {
    "storage": [],
    "types": null
  }
}